{
    "contractName": "CryptoGuitarsMarketPlace",
    "abi": [
        {
            "inputs": [
                {
                    "internalType": "address",
                    "name": "cryptoGuitarsNFTContractAddress",
                    "type": "address"
                },
                {
                    "internalType": "address payable",
                    "name": "feeReceiverAddress",
                    "type": "address"
                },
                {
                    "internalType": "string",
                    "name": "uriBaseAddress",
                    "type": "string"
                }
            ],
            "stateMutability": "nonpayable",
            "type": "constructor"
        },
        {
            "anonymous": false,
            "inputs": [
                {
                    "indexed": true,
                    "internalType": "address",
                    "name": "previousOwner",
                    "type": "address"
                },
                {
                    "indexed": true,
                    "internalType": "address",
                    "name": "newOwner",
                    "type": "address"
                }
            ],
            "name": "OwnershipTransferred",
            "type": "event"
        },
        {
            "inputs": [
                {
                    "internalType": "uint256",
                    "name": "_tokenId",
                    "type": "uint256"
                }
            ],
            "name": "buyToken",
            "outputs": [],
            "stateMutability": "payable",
            "type": "function"
        },
        {
            "inputs": [
                {
                    "internalType": "address",
                    "name": "to",
                    "type": "address"
                }
            ],
            "name": "createNewToken",
            "outputs": [],
            "stateMutability": "payable",
            "type": "function"
        },
        {
            "inputs": [
                {
                    "internalType": "uint256",
                    "name": "_tokenId",
                    "type": "uint256"
                }
            ],
            "name": "hasActiveOffer",
            "outputs": [
                {
                    "internalType": "bool",
                    "name": "",
                    "type": "bool"
                }
            ],
            "stateMutability": "view",
            "type": "function"
        },
        {
            "inputs": [
                {
                    "internalType": "uint256",
                    "name": "tokenId",
                    "type": "uint256"
                },
                {
                    "internalType": "uint256",
                    "name": "price",
                    "type": "uint256"
                }
            ],
            "name": "offerToken",
            "outputs": [],
            "stateMutability": "nonpayable",
            "type": "function"
        },
        {
            "inputs": [],
            "name": "owner",
            "outputs": [
                {
                    "internalType": "address",
                    "name": "",
                    "type": "address"
                }
            ],
            "stateMutability": "view",
            "type": "function"
        },
        {
            "inputs": [],
            "name": "renounceOwnership",
            "outputs": [],
            "stateMutability": "nonpayable",
            "type": "function"
        },
        {
            "inputs": [
                {
                    "internalType": "address",
                    "name": "newOwner",
                    "type": "address"
                }
            ],
            "name": "transferOwnership",
            "outputs": [],
            "stateMutability": "nonpayable",
            "type": "function"
        }
    ],
    "bytecode": "608060405266b1a2bc2ec500006004553480156200001c57600080fd5b5060405162000f0a38038062000f0a8339810160408190526200003f916200018f565b6200004a3362000099565b600180546001600160a01b038086166001600160a01b031992831617909255600280549285169290911691909117905580516200008f906003906020840190620000e9565b50505050620002ff565b600080546001600160a01b038381166001600160a01b0319831681178455604051919092169283917f8be0079c531659141344cd1fd0a4f28419497f9722a3daafe3b4186f6b6457e09190a35050565b828054620000f79062000293565b90600052602060002090601f0160209004810192826200011b576000855562000166565b82601f106200013657805160ff191683800117855562000166565b8280016001018555821562000166579182015b828111156200016657825182559160200191906001019062000149565b506200017492915062000178565b5090565b5b8082111562000174576000815560010162000179565b600080600060608486031215620001a4578283fd5b8351620001b181620002e6565b80935050602080850151620001c681620002e6565b60408601519093506001600160401b0380821115620001e3578384fd5b818701915087601f830112620001f7578384fd5b8151818111156200020c576200020c620002d0565b604051601f8201601f19908116603f01168101908382118183101715620002375762000237620002d0565b816040528281528a868487010111156200024f578687fd5b8693505b8284101562000272578484018601518185018701529285019262000253565b828411156200028357868684830101525b8096505050505050509250925092565b600181811c90821680620002a857607f821691505b60208210811415620002ca57634e487b7160e01b600052602260045260246000fd5b50919050565b634e487b7160e01b600052604160045260246000fd5b6001600160a01b0381168114620002fc57600080fd5b50565b610bfb806200030f6000396000f3fe6080604052600436106100705760003560e01c8063715018a61161004e578063715018a6146100f25780638da5cb5b146101075780639f9eadec1461012f578063f2fde38b1461014257600080fd5b80632b561fba146100755780632d296bf1146100bd57806364922215146100d2575b600080fd5b34801561008157600080fd5b506100a8610090366004610a22565b60009081526006602052604090206004015460ff1690565b60405190151581526020015b60405180910390f35b6100d06100cb366004610a22565b610162565b005b3480156100de57600080fd5b506100d06100ed366004610a52565b6102d4565b3480156100fe57600080fd5b506100d0610567565b34801561011357600080fd5b506000546040516001600160a01b0390911681526020016100b4565b6100d061013d3660046109e3565b6105cd565b34801561014e57600080fd5b506100d061015d3660046109e3565b6107b1565b600081815260066020526040902060040154819060ff166101bd5760405162461bcd60e51b815260206004820152601060248201526f6f66666572206e6f742061637469766560801b60448201526064015b60405180910390fd5b600082815260066020908152604091829020825160a08101845281546001600160a01b031681526001820154928101839052600282015493810193909352600381015460608401526004015460ff161515608083015234146102595760405162461bcd60e51b81526020600482015260156024820152741c185e5b595b9d081b5d5cdd08189948195e1858dd605a1b60448201526064016101b4565b6102628161087c565b60015481516040516323b872dd60e01b81526001600160a01b039182166004820152336024820152604481018690529116906323b872dd90606401600060405180830381600087803b1580156102b757600080fd5b505af11580156102cb573d6000803e3d6000fd5b50505050505050565b6001546040516331a9108f60e11b81526004810184905283916001600160a01b031690636352211e9060240160206040518083038186803b15801561031857600080fd5b505afa15801561032c573d6000803e3d6000fd5b505050506040513d601f19601f820116820180604052508101906103509190610a06565b6001600160a01b0316336001600160a01b0316146103a25760405162461bcd60e51b815260206004820152600f60248201526e3737ba103a37b5b2b71037bbb732b960891b60448201526064016101b4565b600083815260066020526040902060040154839060ff16156103f85760405162461bcd60e51b815260206004820152600f60248201526e323ab83634b1b0ba329037b33332b960891b60448201526064016101b4565b50506040805160a08101825233815260208082019384526005805483850181815260608501888152600160808701818152818501865560008681528851959096027f036b6384b5eca791c62761152d0c79bb0604c104a5fb6f4eb0703f3154bb3db0810180546001600160a01b039788166001600160a01b0319918216179091558b517f036b6384b5eca791c62761152d0c79bb0604c104a5fb6f4eb0703f3154bb3db183015585517f036b6384b5eca791c62761152d0c79bb0604c104a5fb6f4eb0703f3154bb3db283015584517f036b6384b5eca791c62761152d0c79bb0604c104a5fb6f4eb0703f3154bb3db383015582517f036b6384b5eca791c62761152d0c79bb0604c104a5fb6f4eb0703f3154bb3db4909201805492151560ff199384161790559b875260069097529790942095518654931692909816919091178455945190830155925160028201559251600384015551600492909201805492151592909116919091179055565b6000546001600160a01b031633146105c15760405162461bcd60e51b815260206004820181905260248201527f4f776e61626c653a2063616c6c6572206973206e6f7420746865206f776e657260448201526064016101b4565b6105cb60006108d4565b565b600454341461061e5760405162461bcd60e51b815260206004820152601860248201527f65746865722076616c756520697320696e636f7272656374000000000000000060448201526064016101b4565b600154604080516318160ddd60e01b815290516000926001600160a01b0316916318160ddd916004808301926020929190829003018186803b15801561066357600080fd5b505afa158015610677573d6000803e3d6000fd5b505050506040513d601f19601f8201168201806040525081019061069b9190610a3a565b905060006106a882610924565b600154604051636902622f60e11b81529192506001600160a01b03169063d204c45e906106db9086908590600401610b4d565b600060405180830381600087803b1580156106f557600080fd5b505af1158015610709573d6000803e3d6000fd5b505060015460405163095ea7b360e01b8152306004820152602481018690526001600160a01b03909116925063095ea7b39150604401600060405180830381600087803b15801561075957600080fd5b505af115801561076d573d6000803e3d6000fd5b50506002546040516001600160a01b0390911692503480156108fc029250906000818181858888f193505050501580156107ab573d6000803e3d6000fd5b50505050565b6000546001600160a01b0316331461080b5760405162461bcd60e51b815260206004820181905260248201527f4f776e61626c653a2063616c6c6572206973206e6f7420746865206f776e657260448201526064016101b4565b6001600160a01b0381166108705760405162461bcd60e51b815260206004820152602660248201527f4f776e61626c653a206e6577206f776e657220697320746865207a65726f206160448201526564647265737360d01b60648201526084016101b4565b610879816108d4565b50565b6108898160600151610950565b60208101511561087957805160208201516040516001600160a01b039092169181156108fc0291906000818181858888f193505050501580156108d0573d6000803e3d6000fd5b5050565b600080546001600160a01b038381166001600160a01b0319831681178455604051919092169283917f8be0079c531659141344cd1fd0a4f28419497f9722a3daafe3b4186f6b6457e09190a35050565b606060038260405160200161093a929190610a73565b6040516020818303038152906040529050919050565b60008181526006602052604081206002015460058054909190811061098557634e487b7160e01b600052603260045260246000fd5b6000918252602080832060046005909302018201805494151560ff1995861617905593825260069093526040812080546001600160a01b03191681556001810182905560028101829055600381019190915590910180549091169055565b6000602082840312156109f4578081fd5b81356109ff81610bb0565b9392505050565b600060208284031215610a17578081fd5b81516109ff81610bb0565b600060208284031215610a33578081fd5b5035919050565b600060208284031215610a4b578081fd5b5051919050565b60008060408385031215610a64578081fd5b50508035926020909101359150565b600080845482600182811c915080831680610a8f57607f831692505b6020808410821415610aaf57634e487b7160e01b87526022600452602487fd5b818015610ac35760018114610ad457610b00565b60ff19861689528489019650610b00565b60008b815260209020885b86811015610af85781548b820152908501908301610adf565b505084890196505b506e2f43727970746f477569746172732d60881b8652600f86019550888652610b3f8187016d16b6b2ba30b230ba30973539b7b760911b8152600e0190565b9a9950505050505050505050565b60018060a01b0383168152600060206040818401528351806040850152825b81811015610b8857858101830151858201606001528201610b6c565b81811115610b995783606083870101525b50601f01601f191692909201606001949350505050565b6001600160a01b038116811461087957600080fdfea26469706673582212206c5362a5f3adea404e925b906e5ba729fbcfbb335dbc0be686e29afc47383f2b64736f6c63430008040033",
    "sourcePath": "/home/freek/projects/CryptoGuitars/SmartContracts/contracts/CryptoGuitarsMarketPlace.sol",
    "compiler": {
        "name": "solc",
        "version": "0.8.4+commit.c7e474f2"
    },
    "functionHashes": {
        "buyToken(uint256)": "2d296bf1",
        "createNewToken(address)": "9f9eadec",
        "hasActiveOffer(uint256)": "2b561fba",
        "offerToken(uint256,uint256)": "64922215",
        "owner()": "8da5cb5b",
        "renounceOwnership()": "715018a6",
        "transferOwnership(address)": "f2fde38b"
    },
    "gasEstimates": {
        "creation": {
            "codeDepositCost": "613400",
            "executionCost": "infinite",
            "totalCost": "infinite"
        },
        "external": {
            "buyToken(uint256)": "infinite",
            "createNewToken(address)": "infinite",
            "hasActiveOffer(uint256)": "1146",
            "offerToken(uint256,uint256)": "infinite",
            "owner()": "1023",
            "renounceOwnership()": "23414",
            "transferOwnership(address)": "infinite"
        },
        "internal": {
            "_buildUri(uint256)": "infinite",
            "_executeOffer(struct CryptoGuitarsMarketPlace.Offer memory)": "infinite",
            "_setOfferInactive(uint256)": "79409"
        }
    }
}