{
    "contractName": "CryptoGuitarsMarketPlace",
    "abi": [
        {
            "inputs": [
                {
                    "internalType": "address",
                    "name": "cryptoGuitarsNFTContractAddress",
                    "type": "address"
                },
                {
                    "internalType": "address payable",
                    "name": "feeReceiverAddress",
                    "type": "address"
                }
            ],
            "stateMutability": "nonpayable",
            "type": "constructor"
        },
        {
            "anonymous": false,
            "inputs": [
                {
                    "indexed": true,
                    "internalType": "address",
                    "name": "previousOwner",
                    "type": "address"
                },
                {
                    "indexed": true,
                    "internalType": "address",
                    "name": "newOwner",
                    "type": "address"
                }
            ],
            "name": "OwnershipTransferred",
            "type": "event"
        },
        {
            "inputs": [
                {
                    "internalType": "uint256",
                    "name": "_tokenId",
                    "type": "uint256"
                }
            ],
            "name": "buyToken",
            "outputs": [],
            "stateMutability": "payable",
            "type": "function"
        },
        {
            "inputs": [
                {
                    "internalType": "address",
                    "name": "to",
                    "type": "address"
                },
                {
                    "internalType": "uint256",
                    "name": "tokenId",
                    "type": "uint256"
                }
            ],
            "name": "createNewToken",
            "outputs": [],
            "stateMutability": "payable",
            "type": "function"
        },
        {
            "inputs": [
                {
                    "internalType": "uint256",
                    "name": "_tokenId",
                    "type": "uint256"
                }
            ],
            "name": "getActiveOffer",
            "outputs": [
                {
                    "components": [
                        {
                            "internalType": "address",
                            "name": "seller",
                            "type": "address"
                        },
                        {
                            "internalType": "uint256",
                            "name": "price",
                            "type": "uint256"
                        },
                        {
                            "internalType": "uint256",
                            "name": "index",
                            "type": "uint256"
                        },
                        {
                            "internalType": "uint256",
                            "name": "tokenId",
                            "type": "uint256"
                        },
                        {
                            "internalType": "bool",
                            "name": "active",
                            "type": "bool"
                        }
                    ],
                    "internalType": "struct CryptoGuitarsMarketPlace.Offer",
                    "name": "",
                    "type": "tuple"
                }
            ],
            "stateMutability": "view",
            "type": "function"
        },
        {
            "inputs": [
                {
                    "internalType": "uint256",
                    "name": "_tokenId",
                    "type": "uint256"
                }
            ],
            "name": "hasActiveOffer",
            "outputs": [
                {
                    "internalType": "bool",
                    "name": "",
                    "type": "bool"
                }
            ],
            "stateMutability": "view",
            "type": "function"
        },
        {
            "inputs": [
                {
                    "internalType": "uint256",
                    "name": "tokenId",
                    "type": "uint256"
                },
                {
                    "internalType": "uint256",
                    "name": "price",
                    "type": "uint256"
                }
            ],
            "name": "offerToken",
            "outputs": [],
            "stateMutability": "nonpayable",
            "type": "function"
        },
        {
            "inputs": [],
            "name": "owner",
            "outputs": [
                {
                    "internalType": "address",
                    "name": "",
                    "type": "address"
                }
            ],
            "stateMutability": "view",
            "type": "function"
        },
        {
            "inputs": [],
            "name": "renounceOwnership",
            "outputs": [],
            "stateMutability": "nonpayable",
            "type": "function"
        },
        {
            "inputs": [
                {
                    "internalType": "address",
                    "name": "newOwner",
                    "type": "address"
                }
            ],
            "name": "transferOwnership",
            "outputs": [],
            "stateMutability": "nonpayable",
            "type": "function"
        }
    ],
    "bytecode": "608060405266b1a2bc2ec5000060035534801561001b57600080fd5b50604051610cc5380380610cc583398101604081905261003a916100dc565b61004333610074565b600180546001600160a01b039384166001600160a01b03199182161790915560028054929093169116179055610116565b600080546001600160a01b038381166001600160a01b0319831681178455604051919092169283917f8be0079c531659141344cd1fd0a4f28419497f9722a3daafe3b4186f6b6457e09190a35050565b6001600160a01b03811681146100d957600080fd5b50565b600080604083850312156100ef57600080fd5b82516100fa816100c4565b602084015190925061010b816100c4565b809150509250929050565b610ba0806101256000396000f3fe60806040526004361061007b5760003560e01c8063715018a61161004e578063715018a6146101695780638da5cb5b1461017e578063a30a0b33146101a6578063f2fde38b146101b957600080fd5b80630e518506146100805780632b561fba146100f15780632d296bf1146101345780636492221514610149575b600080fd5b34801561008c57600080fd5b506100a061009b366004610a75565b6101d9565b6040516100e8919081516001600160a01b0316815260208083015190820152604080830151908201526060808301519082015260809182015115159181019190915260a00190565b60405180910390f35b3480156100fd57600080fd5b5061012461010c366004610a75565b60009081526005602052604090206004015460ff1690565b60405190151581526020016100e8565b610147610142366004610a75565b610273565b005b34801561015557600080fd5b50610147610164366004610a8e565b6103e5565b34801561017557600080fd5b50610147610723565b34801561018a57600080fd5b506000546040516001600160a01b0390911681526020016100e8565b6101476101b4366004610ac5565b610789565b3480156101c557600080fd5b506101476101d4366004610af1565b61087f565b6102166040518060a0016040528060006001600160a01b031681526020016000815260200160008152602001600081526020016000151581525090565b50600090815260056020908152604091829020825160a08101845281546001600160a01b031681526001820154928101929092526002810154928201929092526003820154606082015260049091015460ff161515608082015290565b600081815260056020526040902060040154819060ff166102ce5760405162461bcd60e51b815260206004820152601060248201526f6f66666572206e6f742061637469766560801b60448201526064015b60405180910390fd5b600082815260056020908152604091829020825160a08101845281546001600160a01b031681526001820154928101839052600282015493810193909352600381015460608401526004015460ff1615156080830152341461036a5760405162461bcd60e51b81526020600482015260156024820152741c185e5b595b9d081b5d5cdd08189948195e1858dd605a1b60448201526064016102c5565b6103738161094a565b60015481516040516323b872dd60e01b81526001600160a01b039182166004820152336024820152604481018690529116906323b872dd90606401600060405180830381600087803b1580156103c857600080fd5b505af11580156103dc573d6000803e3d6000fd5b50505050505050565b60015460405163e985e9c560e01b81523360048201523060248201526001600160a01b039091169063e985e9c590604401602060405180830381865afa158015610433573d6000803e3d6000fd5b505050506040513d601f19601f820116820180604052508101906104579190610b15565b6104a35760405162461bcd60e51b815260206004820181905260248201527f6d61726b6574206d75737420626520617070726f766564206f70657261746f7260448201526064016102c5565b6001546040516331a9108f60e11b81526004810184905283916001600160a01b031690636352211e90602401602060405180830381865afa1580156104ec573d6000803e3d6000fd5b505050506040513d601f19601f820116820180604052508101906105109190610b37565b6001600160a01b0316336001600160a01b0316146105625760405162461bcd60e51b815260206004820152600f60248201526e3737ba103a37b5b2b71037bbb732b960891b60448201526064016102c5565b600083815260056020526040902060040154839060ff16156105b85760405162461bcd60e51b815260206004820152600f60248201526e323ab83634b1b0ba329037b33332b960891b60448201526064016102c5565b50506040805160a0810182523381526020808201938452600480548385018181526060850188815260016080870181815281850186556000868152885160059687027f8a35acfbc15ff81a39ae7d344fd709f28e8600b4aa8c65c6b64bfe7fe36bd19b810180546001600160a01b039384166001600160a01b0319918216179091558d517f8a35acfbc15ff81a39ae7d344fd709f28e8600b4aa8c65c6b64bfe7fe36bd19c83015587517f8a35acfbc15ff81a39ae7d344fd709f28e8600b4aa8c65c6b64bfe7fe36bd19d83015586517f8a35acfbc15ff81a39ae7d344fd709f28e8600b4aa8c65c6b64bfe7fe36bd19e83015584517f8a35acfbc15ff81a39ae7d344fd709f28e8600b4aa8c65c6b64bfe7fe36bd19f909201805492151560ff199384161790559d83529690985298909820965187549616959099169490941785559551968401969096559351600283015551600382015590519101805491151591909216179055565b6000546001600160a01b0316331461077d5760405162461bcd60e51b815260206004820181905260248201527f4f776e61626c653a2063616c6c6572206973206e6f7420746865206f776e657260448201526064016102c5565b61078760006109a2565b565b60035434146107da5760405162461bcd60e51b815260206004820152601860248201527f65746865722076616c756520697320696e636f7272656374000000000000000060448201526064016102c5565b600154604051632851206560e21b81526001600160a01b038481166004830152602482018490529091169063a144819490604401600060405180830381600087803b15801561082857600080fd5b505af115801561083c573d6000803e3d6000fd5b50506002546040516001600160a01b0390911692503480156108fc029250906000818181858888f1935050505015801561087a573d6000803e3d6000fd5b505050565b6000546001600160a01b031633146108d95760405162461bcd60e51b815260206004820181905260248201527f4f776e61626c653a2063616c6c6572206973206e6f7420746865206f776e657260448201526064016102c5565b6001600160a01b03811661093e5760405162461bcd60e51b815260206004820152602660248201527f4f776e61626c653a206e6577206f776e657220697320746865207a65726f206160448201526564647265737360d01b60648201526084016102c5565b610947816109a2565b50565b61095781606001516109f2565b60208101511561094757805160208201516040516001600160a01b039092169181156108fc0291906000818181858888f1935050505015801561099e573d6000803e3d6000fd5b5050565b600080546001600160a01b038381166001600160a01b0319831681178455604051919092169283917f8be0079c531659141344cd1fd0a4f28419497f9722a3daafe3b4186f6b6457e09190a35050565b600081815260056020526040812060020154600480549091908110610a1957610a19610b54565b60009182526020808320600460059384029091018101805495151560ff19968716179055948352526040812080546001600160a01b03191681556001810182905560028101829055600381019190915590910180549091169055565b600060208284031215610a8757600080fd5b5035919050565b60008060408385031215610aa157600080fd5b50508035926020909101359150565b6001600160a01b038116811461094757600080fd5b60008060408385031215610ad857600080fd5b8235610ae381610ab0565b946020939093013593505050565b600060208284031215610b0357600080fd5b8135610b0e81610ab0565b9392505050565b600060208284031215610b2757600080fd5b81518015158114610b0e57600080fd5b600060208284031215610b4957600080fd5b8151610b0e81610ab0565b634e487b7160e01b600052603260045260246000fdfea264697066735822122002bc5a261f16a55c9477fda62b38592a49aa621a34c3a261bf09022d3643b94264736f6c634300080d0033",
    "sourcePath": "/workspaces/CryptoGuitars/SmartContracts/contracts/CryptoGuitarsMarketPlace.sol",
    "compiler": {
        "name": "solc",
        "version": "0.8.13+commit.abaa5c0e"
    },
    "functionHashes": {
        "buyToken(uint256)": "2d296bf1",
        "createNewToken(address,uint256)": "a30a0b33",
        "getActiveOffer(uint256)": "0e518506",
        "hasActiveOffer(uint256)": "2b561fba",
        "offerToken(uint256,uint256)": "64922215",
        "owner()": "8da5cb5b",
        "renounceOwnership()": "715018a6",
        "transferOwnership(address)": "f2fde38b"
    },
    "gasEstimates": {
        "creation": {
            "codeDepositCost": "595200",
            "executionCost": "infinite",
            "totalCost": "infinite"
        },
        "external": {
            "buyToken(uint256)": "infinite",
            "createNewToken(address,uint256)": "infinite",
            "getActiveOffer(uint256)": "11359",
            "hasActiveOffer(uint256)": "2479",
            "offerToken(uint256,uint256)": "infinite",
            "owner()": "2323",
            "renounceOwnership()": "28114",
            "transferOwnership(address)": "infinite"
        },
        "internal": {
            "_executeOffer(struct CryptoGuitarsMarketPlace.Offer memory)": "infinite",
            "_setOfferInactive(uint256)": "92206"
        }
    }
}