{
    "contractName": "CryptoGuitarsNFT",
    "abi": [
        {
            "inputs": [
                {
                    "internalType": "string",
                    "name": "uriBaseAddress",
                    "type": "string"
                }
            ],
            "stateMutability": "nonpayable",
            "type": "constructor"
        },
        {
            "anonymous": false,
            "inputs": [
                {
                    "indexed": true,
                    "internalType": "address",
                    "name": "owner",
                    "type": "address"
                },
                {
                    "indexed": true,
                    "internalType": "address",
                    "name": "approved",
                    "type": "address"
                },
                {
                    "indexed": true,
                    "internalType": "uint256",
                    "name": "tokenId",
                    "type": "uint256"
                }
            ],
            "name": "Approval",
            "type": "event"
        },
        {
            "anonymous": false,
            "inputs": [
                {
                    "indexed": true,
                    "internalType": "address",
                    "name": "owner",
                    "type": "address"
                },
                {
                    "indexed": true,
                    "internalType": "address",
                    "name": "operator",
                    "type": "address"
                },
                {
                    "indexed": false,
                    "internalType": "bool",
                    "name": "approved",
                    "type": "bool"
                }
            ],
            "name": "ApprovalForAll",
            "type": "event"
        },
        {
            "anonymous": false,
            "inputs": [
                {
                    "indexed": true,
                    "internalType": "address",
                    "name": "previousOwner",
                    "type": "address"
                },
                {
                    "indexed": true,
                    "internalType": "address",
                    "name": "newOwner",
                    "type": "address"
                }
            ],
            "name": "OwnershipTransferred",
            "type": "event"
        },
        {
            "anonymous": false,
            "inputs": [
                {
                    "indexed": true,
                    "internalType": "address",
                    "name": "from",
                    "type": "address"
                },
                {
                    "indexed": true,
                    "internalType": "address",
                    "name": "to",
                    "type": "address"
                },
                {
                    "indexed": true,
                    "internalType": "uint256",
                    "name": "tokenId",
                    "type": "uint256"
                }
            ],
            "name": "Transfer",
            "type": "event"
        },
        {
            "inputs": [
                {
                    "internalType": "address",
                    "name": "to",
                    "type": "address"
                },
                {
                    "internalType": "uint256",
                    "name": "tokenId",
                    "type": "uint256"
                }
            ],
            "name": "approve",
            "outputs": [],
            "stateMutability": "nonpayable",
            "type": "function"
        },
        {
            "inputs": [
                {
                    "internalType": "address",
                    "name": "owner",
                    "type": "address"
                }
            ],
            "name": "balanceOf",
            "outputs": [
                {
                    "internalType": "uint256",
                    "name": "",
                    "type": "uint256"
                }
            ],
            "stateMutability": "view",
            "type": "function"
        },
        {
            "inputs": [
                {
                    "internalType": "uint256",
                    "name": "tokenId",
                    "type": "uint256"
                }
            ],
            "name": "exists",
            "outputs": [
                {
                    "internalType": "bool",
                    "name": "",
                    "type": "bool"
                }
            ],
            "stateMutability": "view",
            "type": "function"
        },
        {
            "inputs": [
                {
                    "internalType": "uint256",
                    "name": "tokenId",
                    "type": "uint256"
                }
            ],
            "name": "getApproved",
            "outputs": [
                {
                    "internalType": "address",
                    "name": "",
                    "type": "address"
                }
            ],
            "stateMutability": "view",
            "type": "function"
        },
        {
            "inputs": [
                {
                    "internalType": "address",
                    "name": "owner",
                    "type": "address"
                },
                {
                    "internalType": "address",
                    "name": "operator",
                    "type": "address"
                }
            ],
            "name": "isApprovedForAll",
            "outputs": [
                {
                    "internalType": "bool",
                    "name": "",
                    "type": "bool"
                }
            ],
            "stateMutability": "view",
            "type": "function"
        },
        {
            "inputs": [],
            "name": "name",
            "outputs": [
                {
                    "internalType": "string",
                    "name": "",
                    "type": "string"
                }
            ],
            "stateMutability": "view",
            "type": "function"
        },
        {
            "inputs": [],
            "name": "owner",
            "outputs": [
                {
                    "internalType": "address",
                    "name": "",
                    "type": "address"
                }
            ],
            "stateMutability": "view",
            "type": "function"
        },
        {
            "inputs": [
                {
                    "internalType": "uint256",
                    "name": "tokenId",
                    "type": "uint256"
                }
            ],
            "name": "ownerOf",
            "outputs": [
                {
                    "internalType": "address",
                    "name": "",
                    "type": "address"
                }
            ],
            "stateMutability": "view",
            "type": "function"
        },
        {
            "inputs": [],
            "name": "renounceOwnership",
            "outputs": [],
            "stateMutability": "nonpayable",
            "type": "function"
        },
        {
            "inputs": [
                {
                    "internalType": "address",
                    "name": "to",
                    "type": "address"
                },
                {
                    "internalType": "uint256",
                    "name": "tokenId",
                    "type": "uint256"
                }
            ],
            "name": "safeMint",
            "outputs": [],
            "stateMutability": "nonpayable",
            "type": "function"
        },
        {
            "inputs": [
                {
                    "internalType": "address",
                    "name": "from",
                    "type": "address"
                },
                {
                    "internalType": "address",
                    "name": "to",
                    "type": "address"
                },
                {
                    "internalType": "uint256",
                    "name": "tokenId",
                    "type": "uint256"
                }
            ],
            "name": "safeTransferFrom",
            "outputs": [],
            "stateMutability": "nonpayable",
            "type": "function"
        },
        {
            "inputs": [
                {
                    "internalType": "address",
                    "name": "from",
                    "type": "address"
                },
                {
                    "internalType": "address",
                    "name": "to",
                    "type": "address"
                },
                {
                    "internalType": "uint256",
                    "name": "tokenId",
                    "type": "uint256"
                },
                {
                    "internalType": "bytes",
                    "name": "_data",
                    "type": "bytes"
                }
            ],
            "name": "safeTransferFrom",
            "outputs": [],
            "stateMutability": "nonpayable",
            "type": "function"
        },
        {
            "inputs": [
                {
                    "internalType": "address",
                    "name": "operator",
                    "type": "address"
                },
                {
                    "internalType": "bool",
                    "name": "approved",
                    "type": "bool"
                }
            ],
            "name": "setApprovalForAll",
            "outputs": [],
            "stateMutability": "nonpayable",
            "type": "function"
        },
        {
            "inputs": [
                {
                    "internalType": "bytes4",
                    "name": "interfaceId",
                    "type": "bytes4"
                }
            ],
            "name": "supportsInterface",
            "outputs": [
                {
                    "internalType": "bool",
                    "name": "",
                    "type": "bool"
                }
            ],
            "stateMutability": "view",
            "type": "function"
        },
        {
            "inputs": [],
            "name": "symbol",
            "outputs": [
                {
                    "internalType": "string",
                    "name": "",
                    "type": "string"
                }
            ],
            "stateMutability": "view",
            "type": "function"
        },
        {
            "inputs": [
                {
                    "internalType": "uint256",
                    "name": "index",
                    "type": "uint256"
                }
            ],
            "name": "tokenByIndex",
            "outputs": [
                {
                    "internalType": "uint256",
                    "name": "",
                    "type": "uint256"
                }
            ],
            "stateMutability": "view",
            "type": "function"
        },
        {
            "inputs": [
                {
                    "internalType": "address",
                    "name": "owner",
                    "type": "address"
                },
                {
                    "internalType": "uint256",
                    "name": "index",
                    "type": "uint256"
                }
            ],
            "name": "tokenOfOwnerByIndex",
            "outputs": [
                {
                    "internalType": "uint256",
                    "name": "",
                    "type": "uint256"
                }
            ],
            "stateMutability": "view",
            "type": "function"
        },
        {
            "inputs": [
                {
                    "internalType": "uint256",
                    "name": "tokenId",
                    "type": "uint256"
                }
            ],
            "name": "tokenURI",
            "outputs": [
                {
                    "internalType": "string",
                    "name": "",
                    "type": "string"
                }
            ],
            "stateMutability": "view",
            "type": "function"
        },
        {
            "inputs": [],
            "name": "totalSupply",
            "outputs": [
                {
                    "internalType": "uint256",
                    "name": "",
                    "type": "uint256"
                }
            ],
            "stateMutability": "view",
            "type": "function"
        },
        {
            "inputs": [
                {
                    "internalType": "address",
                    "name": "from",
                    "type": "address"
                },
                {
                    "internalType": "address",
                    "name": "to",
                    "type": "address"
                },
                {
                    "internalType": "uint256",
                    "name": "tokenId",
                    "type": "uint256"
                }
            ],
            "name": "transferFrom",
            "outputs": [],
            "stateMutability": "nonpayable",
            "type": "function"
        },
        {
            "inputs": [
                {
                    "internalType": "address",
                    "name": "newOwner",
                    "type": "address"
                }
            ],
            "name": "transferOwnership",
            "outputs": [],
            "stateMutability": "nonpayable",
            "type": "function"
        }
    ],
    "bytecode": "60806040523480156200001157600080fd5b506040516200210d3803806200210d8339810160408190526200003491620001eb565b604080518082018252601281527110dc9e5c1d1bc811dd5a5d185c9cc813919560721b60208083019182528351808501909452600384526221a3a360e91b90840152815191929162000089916000916200012f565b5080516200009f9060019060208401906200012f565b505050620000bc620000b6620000d960201b60201c565b620000dd565b8051620000d190600c9060208401906200012f565b505062000303565b3390565b600b80546001600160a01b038381166001600160a01b0319831681179093556040519116919082907f8be0079c531659141344cd1fd0a4f28419497f9722a3daafe3b4186f6b6457e090600090a35050565b8280546200013d90620002c7565b90600052602060002090601f016020900481019282620001615760008555620001ac565b82601f106200017c57805160ff1916838001178555620001ac565b82800160010185558215620001ac579182015b82811115620001ac5782518255916020019190600101906200018f565b50620001ba929150620001be565b5090565b5b80821115620001ba5760008155600101620001bf565b634e487b7160e01b600052604160045260246000fd5b60006020808385031215620001ff57600080fd5b82516001600160401b03808211156200021757600080fd5b818501915085601f8301126200022c57600080fd5b815181811115620002415762000241620001d5565b604051601f8201601f19908116603f011681019083821181831017156200026c576200026c620001d5565b8160405282815288868487010111156200028557600080fd5b600093505b82841015620002a957848401860151818501870152928501926200028a565b82841115620002bb5760008684830101525b98975050505050505050565b600181811c90821680620002dc57607f821691505b602082108103620002fd57634e487b7160e01b600052602260045260246000fd5b50919050565b611dfa80620003136000396000f3fe608060405234801561001057600080fd5b50600436106101375760003560e01c80636352211e116100b8578063a14481941161007c578063a144819414610271578063a22cb46514610284578063b88d4fde14610297578063c87b56dd146102aa578063e985e9c5146102bd578063f2fde38b146102f957600080fd5b80636352211e1461022a57806370a082311461023d578063715018a6146102505780638da5cb5b1461025857806395d89b411461026957600080fd5b806323b872dd116100ff57806323b872dd146101cb5780632f745c59146101de57806342842e0e146101f15780634f558e79146102045780634f6ccce71461021757600080fd5b806301ffc9a71461013c57806306fdde0314610164578063081812fc14610179578063095ea7b3146101a457806318160ddd146101b9575b600080fd5b61014f61014a3660046117c5565b61030c565b60405190151581526020015b60405180910390f35b61016c61031d565b60405161015b919061183a565b61018c61018736600461184d565b6103af565b6040516001600160a01b03909116815260200161015b565b6101b76101b2366004611882565b61043c565b005b6008545b60405190815260200161015b565b6101b76101d93660046118ac565b610551565b6101bd6101ec366004611882565b610582565b6101b76101ff3660046118ac565b610618565b61014f61021236600461184d565b610633565b6101bd61022536600461184d565b61063e565b61018c61023836600461184d565b6106d1565b6101bd61024b3660046118e8565b610748565b6101b76107cf565b600b546001600160a01b031661018c565b61016c610805565b6101b761027f366004611882565b610814565b6101b7610292366004611903565b61085f565b6101b76102a5366004611955565b61086e565b61016c6102b836600461184d565b6108a6565b61014f6102cb366004611a31565b6001600160a01b03918216600090815260056020908152604080832093909416825291909152205460ff1690565b6101b76103073660046118e8565b6108b1565b60006103178261094c565b92915050565b60606000805461032c90611a64565b80601f016020809104026020016040519081016040528092919081815260200182805461035890611a64565b80156103a55780601f1061037a576101008083540402835291602001916103a5565b820191906000526020600020905b81548152906001019060200180831161038857829003601f168201915b5050505050905090565b60006103ba82610971565b6104205760405162461bcd60e51b815260206004820152602c60248201527f4552433732313a20617070726f76656420717565727920666f72206e6f6e657860448201526b34b9ba32b73a103a37b5b2b760a11b60648201526084015b60405180910390fd5b506000908152600460205260409020546001600160a01b031690565b6000610447826106d1565b9050806001600160a01b0316836001600160a01b0316036104b45760405162461bcd60e51b815260206004820152602160248201527f4552433732313a20617070726f76616c20746f2063757272656e74206f776e656044820152603960f91b6064820152608401610417565b336001600160a01b03821614806104d057506104d081336102cb565b6105425760405162461bcd60e51b815260206004820152603860248201527f4552433732313a20617070726f76652063616c6c6572206973206e6f74206f7760448201527f6e6572206e6f7220617070726f76656420666f7220616c6c00000000000000006064820152608401610417565b61054c838361098e565b505050565b61055b33826109fc565b6105775760405162461bcd60e51b815260040161041790611a9e565b61054c838383610ae6565b600061058d83610748565b82106105ef5760405162461bcd60e51b815260206004820152602b60248201527f455243373231456e756d657261626c653a206f776e657220696e646578206f7560448201526a74206f6620626f756e647360a81b6064820152608401610417565b506001600160a01b03919091166000908152600660209081526040808320938352929052205490565b61054c8383836040518060200160405280600081525061086e565b600061031782610971565b600061064960085490565b82106106ac5760405162461bcd60e51b815260206004820152602c60248201527f455243373231456e756d657261626c653a20676c6f62616c20696e646578206f60448201526b7574206f6620626f756e647360a01b6064820152608401610417565b600882815481106106bf576106bf611aef565b90600052602060002001549050919050565b6000818152600260205260408120546001600160a01b0316806103175760405162461bcd60e51b815260206004820152602960248201527f4552433732313a206f776e657220717565727920666f72206e6f6e657869737460448201526832b73a103a37b5b2b760b91b6064820152608401610417565b60006001600160a01b0382166107b35760405162461bcd60e51b815260206004820152602a60248201527f4552433732313a2062616c616e636520717565727920666f7220746865207a65604482015269726f206164647265737360b01b6064820152608401610417565b506001600160a01b031660009081526003602052604090205490565b600b546001600160a01b031633146107f95760405162461bcd60e51b815260040161041790611b05565b6108036000610c8d565b565b60606001805461032c90611a64565b600b546001600160a01b0316331461083e5760405162461bcd60e51b815260040161041790611b05565b6108488282610cdf565b600061085382610cf9565b905061054c8282610d2d565b61086a338383610db8565b5050565b61087833836109fc565b6108945760405162461bcd60e51b815260040161041790611a9e565b6108a084848484610e86565b50505050565b606061031782610eb9565b600b546001600160a01b031633146108db5760405162461bcd60e51b815260040161041790611b05565b6001600160a01b0381166109405760405162461bcd60e51b815260206004820152602660248201527f4f776e61626c653a206e6577206f776e657220697320746865207a65726f206160448201526564647265737360d01b6064820152608401610417565b61094981610c8d565b50565b60006001600160e01b0319821663780e9d6360e01b1480610317575061031782611027565b6000908152600260205260409020546001600160a01b0316151590565b600081815260046020526040902080546001600160a01b0319166001600160a01b03841690811790915581906109c3826106d1565b6001600160a01b03167f8c5be1e5ebec7d5bd14f71427d1e84f3dd0314c0f7b2291e5b200ac8c7c3b92560405160405180910390a45050565b6000610a0782610971565b610a685760405162461bcd60e51b815260206004820152602c60248201527f4552433732313a206f70657261746f7220717565727920666f72206e6f6e657860448201526b34b9ba32b73a103a37b5b2b760a11b6064820152608401610417565b6000610a73836106d1565b9050806001600160a01b0316846001600160a01b03161480610aae5750836001600160a01b0316610aa3846103af565b6001600160a01b0316145b80610ade57506001600160a01b0380821660009081526005602090815260408083209388168352929052205460ff165b949350505050565b826001600160a01b0316610af9826106d1565b6001600160a01b031614610b5d5760405162461bcd60e51b815260206004820152602560248201527f4552433732313a207472616e736665722066726f6d20696e636f72726563742060448201526437bbb732b960d91b6064820152608401610417565b6001600160a01b038216610bbf5760405162461bcd60e51b8152602060048201526024808201527f4552433732313a207472616e7366657220746f20746865207a65726f206164646044820152637265737360e01b6064820152608401610417565b610bca838383611077565b610bd560008261098e565b6001600160a01b0383166000908152600360205260408120805460019290610bfe908490611b50565b90915550506001600160a01b0382166000908152600360205260408120805460019290610c2c908490611b67565b909155505060008181526002602052604080822080546001600160a01b0319166001600160a01b0386811691821790925591518493918716917fddf252ad1be2c89b69c2b068fc378daa952ba7f163c4a11628f55a4df523b3ef91a4505050565b600b80546001600160a01b038381166001600160a01b0319831681179093556040519116919082907f8be0079c531659141344cd1fd0a4f28419497f9722a3daafe3b4186f6b6457e090600090a35050565b61086a828260405180602001604052806000815250611082565b6060600c610d06836110b5565b604051602001610d17929190611b9b565b6040516020818303038152906040529050919050565b610d3682610971565b610d995760405162461bcd60e51b815260206004820152602e60248201527f45524337323155524953746f726167653a2055524920736574206f66206e6f6e60448201526d32bc34b9ba32b73a103a37b5b2b760911b6064820152608401610417565b6000828152600a60209081526040909120825161054c92840190611716565b816001600160a01b0316836001600160a01b031603610e195760405162461bcd60e51b815260206004820152601960248201527f4552433732313a20617070726f766520746f2063616c6c6572000000000000006044820152606401610417565b6001600160a01b03838116600081815260056020908152604080832094871680845294825291829020805460ff191686151590811790915591519182527f17307eab39ab6107e8899845ad3d59bd9653f200f220920489ca2b5937696c31910160405180910390a3505050565b610e91848484610ae6565b610e9d848484846111b6565b6108a05760405162461bcd60e51b815260040161041790611c7c565b6060610ec482610971565b610f2a5760405162461bcd60e51b815260206004820152603160248201527f45524337323155524953746f726167653a2055524920717565727920666f72206044820152703737b732bc34b9ba32b73a103a37b5b2b760791b6064820152608401610417565b6000828152600a602052604081208054610f4390611a64565b80601f0160208091040260200160405190810160405280929190818152602001828054610f6f90611a64565b8015610fbc5780601f10610f9157610100808354040283529160200191610fbc565b820191906000526020600020905b815481529060010190602001808311610f9f57829003601f168201915b505050505090506000610fda60408051602081019091526000815290565b90508051600003610fec575092915050565b81511561101e578082604051602001611006929190611cce565b60405160208183030381529060405292505050919050565b610ade846112b7565b60006001600160e01b031982166380ac58cd60e01b148061105857506001600160e01b03198216635b5e139f60e01b145b8061031757506301ffc9a760e01b6001600160e01b0319831614610317565b61054c83838361138f565b61108c8383611447565b61109960008484846111b6565b61054c5760405162461bcd60e51b815260040161041790611c7c565b6060816000036110dc5750506040805180820190915260018152600360fc1b602082015290565b8160005b811561110657806110f081611cfd565b91506110ff9050600a83611d2c565b91506110e0565b60008167ffffffffffffffff8111156111215761112161193f565b6040519080825280601f01601f19166020018201604052801561114b576020820181803683370190505b5090505b8415610ade57611160600183611b50565b915061116d600a86611d40565b611178906030611b67565b60f81b81838151811061118d5761118d611aef565b60200101906001600160f81b031916908160001a9053506111af600a86611d2c565b945061114f565b60006001600160a01b0384163b156112ac57604051630a85bd0160e11b81526001600160a01b0385169063150b7a02906111fa903390899088908890600401611d54565b6020604051808303816000875af1925050508015611235575060408051601f3d908101601f1916820190925261123291810190611d91565b60015b611292573d808015611263576040519150601f19603f3d011682016040523d82523d6000602084013e611268565b606091505b50805160000361128a5760405162461bcd60e51b815260040161041790611c7c565b805181602001fd5b6001600160e01b031916630a85bd0160e11b149050610ade565b506001949350505050565b60606112c282610971565b6113265760405162461bcd60e51b815260206004820152602f60248201527f4552433732314d657461646174613a2055524920717565727920666f72206e6f60448201526e3732bc34b9ba32b73a103a37b5b2b760891b6064820152608401610417565b600061133d60408051602081019091526000815290565b9050600081511161135d5760405180602001604052806000815250611388565b80611367846110b5565b604051602001611378929190611cce565b6040516020818303038152906040525b9392505050565b6001600160a01b0383166113ea576113e581600880546000838152600960205260408120829055600182018355919091527ff3f7a9fe364faab93b216da50a3214154f22a0a2b415b23a84c8169e8b636ee30155565b61140d565b816001600160a01b0316836001600160a01b03161461140d5761140d8382611586565b6001600160a01b0382166114245761054c81611623565b826001600160a01b0316826001600160a01b03161461054c5761054c82826116d2565b6001600160a01b03821661149d5760405162461bcd60e51b815260206004820181905260248201527f4552433732313a206d696e7420746f20746865207a65726f20616464726573736044820152606401610417565b6114a681610971565b156114f35760405162461bcd60e51b815260206004820152601c60248201527f4552433732313a20746f6b656e20616c7265616479206d696e746564000000006044820152606401610417565b6114ff60008383611077565b6001600160a01b0382166000908152600360205260408120805460019290611528908490611b67565b909155505060008181526002602052604080822080546001600160a01b0319166001600160a01b03861690811790915590518392907fddf252ad1be2c89b69c2b068fc378daa952ba7f163c4a11628f55a4df523b3ef908290a45050565b6000600161159384610748565b61159d9190611b50565b6000838152600760205260409020549091508082146115f0576001600160a01b03841660009081526006602090815260408083208584528252808320548484528184208190558352600790915290208190555b5060009182526007602090815260408084208490556001600160a01b039094168352600681528383209183525290812055565b60085460009061163590600190611b50565b6000838152600960205260408120546008805493945090928490811061165d5761165d611aef565b90600052602060002001549050806008838154811061167e5761167e611aef565b60009182526020808320909101929092558281526009909152604080822084905585825281205560088054806116b6576116b6611dae565b6001900381819060005260206000200160009055905550505050565b60006116dd83610748565b6001600160a01b039093166000908152600660209081526040808320868452825280832085905593825260079052919091209190915550565b82805461172290611a64565b90600052602060002090601f016020900481019282611744576000855561178a565b82601f1061175d57805160ff191683800117855561178a565b8280016001018555821561178a579182015b8281111561178a57825182559160200191906001019061176f565b5061179692915061179a565b5090565b5b80821115611796576000815560010161179b565b6001600160e01b03198116811461094957600080fd5b6000602082840312156117d757600080fd5b8135611388816117af565b60005b838110156117fd5781810151838201526020016117e5565b838111156108a05750506000910152565b600081518084526118268160208601602086016117e2565b601f01601f19169290920160200192915050565b602081526000611388602083018461180e565b60006020828403121561185f57600080fd5b5035919050565b80356001600160a01b038116811461187d57600080fd5b919050565b6000806040838503121561189557600080fd5b61189e83611866565b946020939093013593505050565b6000806000606084860312156118c157600080fd5b6118ca84611866565b92506118d860208501611866565b9150604084013590509250925092565b6000602082840312156118fa57600080fd5b61138882611866565b6000806040838503121561191657600080fd5b61191f83611866565b91506020830135801515811461193457600080fd5b809150509250929050565b634e487b7160e01b600052604160045260246000fd5b6000806000806080858703121561196b57600080fd5b61197485611866565b935061198260208601611866565b925060408501359150606085013567ffffffffffffffff808211156119a657600080fd5b818701915087601f8301126119ba57600080fd5b8135818111156119cc576119cc61193f565b604051601f8201601f19908116603f011681019083821181831017156119f4576119f461193f565b816040528281528a6020848701011115611a0d57600080fd5b82602086016020830137600060208483010152809550505050505092959194509250565b60008060408385031215611a4457600080fd5b611a4d83611866565b9150611a5b60208401611866565b90509250929050565b600181811c90821680611a7857607f821691505b602082108103611a9857634e487b7160e01b600052602260045260246000fd5b50919050565b60208082526031908201527f4552433732313a207472616e736665722063616c6c6572206973206e6f74206f6040820152701ddb995c881b9bdc88185c1c1c9bdd9959607a1b606082015260800190565b634e487b7160e01b600052603260045260246000fd5b6020808252818101527f4f776e61626c653a2063616c6c6572206973206e6f7420746865206f776e6572604082015260600190565b634e487b7160e01b600052601160045260246000fd5b600082821015611b6257611b62611b3a565b500390565b60008219821115611b7a57611b7a611b3a565b500190565b60008151611b918185602086016117e2565b9290920192915050565b600080845481600182811c915080831680611bb757607f831692505b60208084108203611bd657634e487b7160e01b86526022600452602486fd5b818015611bea5760018114611bfb57611c28565b60ff19861689528489019650611c28565b60008b81526020902060005b86811015611c205781548b820152908501908301611c07565b505084890196505b505050505050611c73611c59611c53836e2f43727970746f477569746172732d60881b8152600f0190565b86611b7f565b6d16b6b2ba30b230ba30973539b7b760911b8152600e0190565b95945050505050565b60208082526032908201527f4552433732313a207472616e7366657220746f206e6f6e20455243373231526560408201527131b2b4bb32b91034b6b83632b6b2b73a32b960711b606082015260800190565b60008351611ce08184602088016117e2565b835190830190611cf48183602088016117e2565b01949350505050565b600060018201611d0f57611d0f611b3a565b5060010190565b634e487b7160e01b600052601260045260246000fd5b600082611d3b57611d3b611d16565b500490565b600082611d4f57611d4f611d16565b500690565b6001600160a01b0385811682528416602082015260408101839052608060608201819052600090611d879083018461180e565b9695505050505050565b600060208284031215611da357600080fd5b8151611388816117af565b634e487b7160e01b600052603160045260246000fdfea264697066735822122093c8f478b770bb94969225851fc549fb4724b9af2a613e66ec26f9bd012523d064736f6c634300080d0033",
    "sourcePath": "/workspaces/CryptoGuitars/SmartContracts/contracts/CryptoGuitarsNFT.sol",
    "compiler": {
        "name": "solc",
        "version": "0.8.13+commit.abaa5c0e"
    },
    "functionHashes": {
        "approve(address,uint256)": "095ea7b3",
        "balanceOf(address)": "70a08231",
        "exists(uint256)": "4f558e79",
        "getApproved(uint256)": "081812fc",
        "isApprovedForAll(address,address)": "e985e9c5",
        "name()": "06fdde03",
        "owner()": "8da5cb5b",
        "ownerOf(uint256)": "6352211e",
        "renounceOwnership()": "715018a6",
        "safeMint(address,uint256)": "a1448194",
        "safeTransferFrom(address,address,uint256)": "42842e0e",
        "safeTransferFrom(address,address,uint256,bytes)": "b88d4fde",
        "setApprovalForAll(address,bool)": "a22cb465",
        "supportsInterface(bytes4)": "01ffc9a7",
        "symbol()": "95d89b41",
        "tokenByIndex(uint256)": "4f6ccce7",
        "tokenOfOwnerByIndex(address,uint256)": "2f745c59",
        "tokenURI(uint256)": "c87b56dd",
        "totalSupply()": "18160ddd",
        "transferFrom(address,address,uint256)": "23b872dd",
        "transferOwnership(address)": "f2fde38b"
    },
    "gasEstimates": {
        "creation": {
            "codeDepositCost": "1534800",
            "executionCost": "infinite",
            "totalCost": "infinite"
        },
        "external": {
            "approve(address,uint256)": "infinite",
            "balanceOf(address)": "2634",
            "exists(uint256)": "2598",
            "getApproved(uint256)": "4799",
            "isApprovedForAll(address,address)": "infinite",
            "name()": "infinite",
            "owner()": "2420",
            "ownerOf(uint256)": "2579",
            "renounceOwnership()": "28184",
            "safeMint(address,uint256)": "infinite",
            "safeTransferFrom(address,address,uint256)": "infinite",
            "safeTransferFrom(address,address,uint256,bytes)": "infinite",
            "setApprovalForAll(address,bool)": "26727",
            "supportsInterface(bytes4)": "infinite",
            "symbol()": "infinite",
            "tokenByIndex(uint256)": "6826",
            "tokenOfOwnerByIndex(address,uint256)": "4975",
            "tokenURI(uint256)": "infinite",
            "totalSupply()": "2393",
            "transferFrom(address,address,uint256)": "infinite",
            "transferOwnership(address)": "28444"
        },
        "internal": {
            "_beforeTokenTransfer(address,address,uint256)": "infinite",
            "_buildUri(uint256)": "infinite",
            "_burn(uint256)": "infinite"
        }
    }
}